:100000000C94A6020C94ED020C94ED020C94ED02FB
:100010000C94ED020C94ED020C94ED020C94ED02A4
:100020000C94ED020C94ED020C94792B0C944B2C57
:100030000C9480260C94ED020C94ED020C94ED02CD
:100040000C94ED020C94ED020C94ED020C94ED0274
:100050000C94ED020C94F5260C94ED020C94ED0238
:100060000C94ED020C94ED020C94ED020C94ED0254
:100070000C94ED020C94ED020C94ED020C94ED0244
:100080000C94ED020C94ED020C94ED020C94ED0234
:100090000C94ED020C94ED020C94ED020C94ED0224
:1000A0000C94ED020C94ED020C94ED02A505A5054F
:1000B000D105D105390657066F076F076206FB06A3
:1000C0000C070C0713081308250825081C08250829
:1000D00025082508130813082108250825082108E4
:1000E0008E1F7A1F991F9E1FA31FA81FAD1FB21F2F
:1000F000B71FBC1FC11FC61FCB1FD01FD51FDA1FC4
:10010000DF1FE41FE91FEE1FF31FF81FFD1F022072
:1001100007200C20112016201B208620B82CDF2C55
:10012000D72DDF2CD72D2B2D4E2DD72DA52DB42D32
:100130002B0014001A000800150017001C001800FE
:100140000C00120013002A002961040016000700A9
:1001500009000A000B000D000E000F0033003400F0
:1001600002551D001B0006001900050011001000BB
:10017000360037005200DA5C035401550455085527
:1001800001542C002C0002543800500051004F0044
:1001900035001E001F002000210022002300240043
:1001A00025002600270001000100000000000000DB
:1001B0000000000054005C005D005E002D002E0079
:1001C0000100000000000000000000005500590080
:1001D0005A005B00570001000451010001000100BA
:1001E000000001000100045162006300670000008C
:1001F00035021E021F0220022102220223022402D3
:1002000025022602270201000100260227022F02F2
:10021000300231025000510052004F002D022E02D8
:100220000100360237022F003000310000000000CC
:1002300036003700520001000451010001000100A6
:1002400004510100010000003800500051004F002F
:1002500047004800C35CC05CBE5CBF5CBC00AE0035
:10026000BB00A800AA00A9000100000000000000D7
:1002700000000000EF00EE00ED00F00000000000C4
:10028000010000000000000000000000000000006D
:100290000000F100ED00F20000000100010001008B
:1002A0000451F100F10004510000EF00EE00F000F5
:1002B0003A003B003C003D003E003F004000410052
:1002C000420043004400450001000000000000001F
:1002D00000000000FB00FA00F900FC000000000034
:1002E000010000000000000000000000000000000D
:1002F00000000100F9000100000001000100010000
:1003000000000100010000000000FB00FA00FC00FA
:1003100000010101010101010101020202020202C8
:10032000020202030303030303030304040404049B
:100330000404050505050506060606060707070762
:100340000708080808090909090A0A0A0B0B0B0C17
:100350000C0C0D0D0D0E0E0E0F0F0F1010111111B4
:100360001212131314141515161617171818191935
:100370001A1A1B1B1C1D1D1E1E1F2020212222239A
:100380002424252626272829292A2B2C2D2D2E2FDB
:1003900030313232333435363738393A3B3C3D3EF2
:1003A0003F404142434445464748494A4C4D4E4FE1
:1003B00050515354555658595A5B5D5E5F616264A3
:1003C000656668696B6C6D6F7072737577787A7B30
:1003D0007D7E8082838587888A8C8E8F9193959687
:1003E000989A9C9EA0A2A3A5A7A9ABADAFB1B3B5A7
:1003F000B7BABCBEC0C2C4C6C9CBCDCFD1D4D6D883
:10040000DBDDDFE2E4E7E9EBEEF0F3F5F8FAFDFF20
:10041000140354006500630068006E0069006B00FF
:100420002D004F000000180342006F0061007200B1
:10043000640073006F0075007200630065000000C7
:100440000403090409023B00020100A0FA090400A8
:1004500000010301010009211101000122400007F0
:1004600005810308000A09040100010300000009D6
:100470002111010001227B000705820320000A12DE
:10048000010002000000087342790001000102002F
:100490000105010902A10185020901A1000509194F
:1004A000012908150025019508750181020501093A
:1004B0003009311581257F950275088106093815A7
:1004C00081257F950175088106050C0A3802158182
:1004D000257F950175088106C0C005010980A1012D
:1004E000850319012AB700150126B700950175107B
:1004F0008100C0050C0901A101850419012AA0028F
:10050000150126A002950175108100C0050109069C
:10051000A101050719E029E71500250195087501D6
:1005200081029501750881010507190029FF150051
:1005300026FF009506750881000508190129059513
:100540000575019102950175039101C011241FBE2B
:10055000CFEFDAE0DEBFCDBF04B603FE27C0809147
:10056000490490914A04A0914B04B0914C04873007
:10057000904BA740B04BD1F41092490410924A041A
:1005800010924B0410924C0414BE84B7877F84BF32
:100590000FB6F894A8958091600088618093600000
:1005A000109260000FBEE0E0F8E3099512E0A0E0D1
:1005B000B1E0E2EBFEE502C005900D92A838B1076C
:1005C000D9F724E0A8E8B2E001C01D92A934B2072F
:1005D000E1F70E948F130C94572F0C94000081E0D8
:1005E000089581E008950C94F10208950C94F502A9
:1005F0001F93CF93DF9300D000D01F92CDB7DEB70B
:1006000049835A836B8330918A0289819A8131119F
:1006100014C0662359F0222349F00E94B709182F0D
:10062000682F89819A810E94600903C00E948B090A
:10063000182F69817A81812F04C00E94B7096981CE
:100640007A810F900F900F900F900F90DF91CF91C4
:100650001F910C94FA10FC01262F40815181628178
:10066000738184810C94F80281E00895CF93DF9325
:10067000EC0160E00E942B03BE01DF91CF910C944E
:10068000F6020E9403120E94D0030E9458210C948B
:1006900040120C943C120E94C91E80E00E94D103BB
:1006A00081E00C94762108950C9453030E94010874
:1006B0000E9454032FEF84E39CE02150804090403F
:1006C000E1F700C000000C941B270F931F93CF93FA
:1006D000DF938C0161E00E942B03EC01B8010E94C2
:1006E000F302882309F444C0B801CE010E942425F6
:1006F0008823F1F1B801CE010E944E238823C1F175
:10070000B801CE010E948024882391F1B801CE0166
:100710000E948722882361F1F8018281882309F1F0
:10072000CB358DE5D807C1F050F4C115FCE5DF07E6
:1007300081F0CF3DDC45A9F40E94E10E19C0CC3513
:10074000EDE5DE0761F0CD35DD4559F40E94240E5C
:1007500008C00E9456030CC00E942D0E02C00E94C9
:10076000300EC801DF91CF911F910F910C94EF02D1
:1007700080E0DF91CF911F910F9108950C94530366
:100780000E9480250E94D10380E00E9476210C9473
:10079000BE0308950C94C90381E008950C94CC0322
:1007A0000895CF93C82F0E94CA038C2F0E94CE03B6
:1007B000CF910895CF93DF93CDB7DEB72B970FB6C8
:1007C000F894DEBF0FBECDBF4F83588769877A8705
:1007D0008B8761110E947D0D9E012F5F3F4F86E048
:1007E000F90111928A95E9F785E0FE013796D90162
:1007F00001900D928A95E1F789819A814C815D8102
:10080000452B31F09F3F31F491E08F3F19F403C045
:1008100091E001C090E090FF09C049815A816B814D
:100820007C818D819E810E949E0C05C0C9010E9421
:1008300034038111F2CF2B960FB6F894DEBF0FBEB2
:10084000CDBFDF91CF910895FC01808191810E94FD
:10085000F9090895CF93882309F4A4C0C82F8238DA
:10086000C1F40E94802581FD9DC069E38091E4016F
:100870009091E5010E9413260E94A20D2FEF81EEB8
:1008800094E0215080409040E1F700C0000069E30F
:1008900019C0833801F50E94802580FD83C063E57F
:1008A0008091E4019091E5010E9413260E94A20D1F
:1008B0002FEF81EE94E0215080409040E1F700C09E
:1008C000000063E58091E4019091E5010E94152606
:1008D000CF910C94A20D8438C1F40E94802582FD32
:1008E00061C067E48091E4019091E5010E941326C4
:1008F0000E94A20D2FEF81EE94E0215080409040A5
:10090000E1F700C0000067E4DDCF8CEF8C0F813A87
:10091000D0F46C2F8091E4019091E5010E94DD25D7
:10092000882349F06C2F8091E4019091E5010E94A9
:1009300015260E94A20D6C2F8091E4019091E50193
:100940000E941326C5CF80E28C0F883048F4C77010
:1009500081E001C0880FCA95EAF70E94600DB8CF08
:10096000EBE5EC0FE33040F4F0E0EC5CFD4F808110
:1009700090E0CF910C94A525E8E5EC0FE73150F419
:10098000F0E0EE0FFF1FEA5FFD4F80819181CF9174
:100990000C94BB25CD3E30F08C2F0E941E14CF91BD
:1009A0000C94F014CF910895882309F464C0823820
:1009B00079F40E94802581FF5EC069E38091E401A3
:1009C0009091E5010E9413260E94A20D69E310C0D8
:1009D0008338B1F40E94802580FF4DC063E580918B
:1009E000E4019091E5010E9413260E94A20D63E5A7
:1009F0008091E4019091E5010E9415260C94A20DCE
:100A0000843879F40E94802582FF35C067E48091A4
:100A1000E4019091E5010E9413260E94A20D67E473
:100A2000E7CF9CEF980F913A10F4682FE1CF90E256
:100A3000980F983050F4877091E001C0990F8A9513
:100A4000EAF7892F0E94660DD9CF9BE5980F933066
:100A500020F480E090E00C94A52598E5980F97315C
:100A600020F480E090E00C94BB258D3E20F00E94A5
:100A700079140C94F01408951F93CF93DF93182FDB
:100A8000EB010E942A04209741F08FE99FE0019733
:100A9000F1F700C000002197F6CF812FDF91CF91B1
:100AA0001F910C94D404893319F060E070E002C007
:100AB00060E570E00C943C05882321F00E94600DF5
:100AC0000C94A20D0895882321F00E94660D0C94C9
:100AD000A20D0895CF92DF92EF92FF920F931F9392
:100AE000CF93DF937C01D62FC72FFC0112810581A4
:100AF00002950F700E94560D8823B9F01123A9F0BA
:100B00008C2F807F803421F080E28D0F883068F058
:100B100080916F0382FD09C082E00E94F20D0E9465
:100B2000560D91E0D82ED92601C0D12CCC2EC294DE
:100B30008FE0C8228C2D90E08C30910508F0CFC159
:100B4000FC01EA5AFF4F0C94552E8C2F807FCF70FA
:100B5000882311F0C295C07F112399F0CC2309F4AA
:100B6000AAC180E28D0F883010F0D11104C08C2F03
:100B70000E94600D03C08C2F0E94700D0E94A20D78
:100B80009AC18D2F0E94D404CC2309F4A8C180E21D
:100B90008D0F883038F1DD2329F18C2F0E94760DDE
:100BA00024C08C2F807FCF70803211F0C295C07F1F
:100BB000DD2319F0D130A1F13DC080916F0382FF98
:100BC00017C0112349F0CC2329F08C2F0E94600D0F
:100BD0000E94A20D80E070C180E00E94D404CC236A
:100BE00009F47DC18C2F0E94660D0E94A20D77C171
:100BF000112371F0002341F0013031F40E94830D84
:100C00008C2B0E948B0D6BC10E94830D8C2B1DC001
:100C1000002319F0013009F462C10E94980D25C02B
:100C2000112321F0063008F05AC10EC0053008F03B
:100C300056C11BC0112361F0002331F0F7018581FB
:100C400080FF39C18F7085838C2F0E945C0547C15E
:100C5000002359F0D93309F03FC1FFEF07EE13E04D
:100C6000F15000401040E1F735C18C2F0E94630520
:100C700036C18C2F86958695837019F0813061F08E
:100C80002EC1112321F08D2F9C2F937002C080E084
:100C900090E00E94A5252BC1112321F08D2F9C2FC0
:100CA000937002C080E090E00E94BB2520C18D2F90
:100CB000112319F00E941E1402C00E9479140E9490
:100CC000F01415C18C2F837009F047C011110BC1AE
:100CD0002D2F229526952770220F220F6D2F6F70D2
:100CE000862F90E0A0E0B0E0022E04C0880F991F8C
:100CF000AA1FBB1F0A94D2F7D4FF10C04FE050E0E8
:100D000060E070E004C0440F551F661F771F2A95EE
:100D1000D2F7409550956095709503C040E050E043
:100D2000BA01C695C695C3708A019B01082B192B81
:100D30002A2B3B2BC901B801C23049F058F4C1300D
:100D400019F00E947608CFC00E946408CCC00E94AF
:100D50008808C9C00E946208C6C0112319F08C2FF0
:100D6000817001C08695882309F4BDC02D2F22957E
:100D700026952770220F220F6D2F6F70862F90E01F
:100D8000A0E0B0E0022E04C0880F991FAA1FBB1F6D
:100D90000A94D2F7D4FF10C04FE050E060E070E05A
:100DA00004C0440F551F661F771F2A95D2F7409540
:100DB00050956095709503C040E050E0BA01C6952B
:100DC000C695C3708A019B01082B192B2A2B3B2B3C
:100DD000C901B801C23049F058F4C13019F00E947D
:100DE0003B0981C00E9429097EC00E944D097BC039
:100DF0000E949C0878C0CF70112339F08C2F0E947C
:100E0000C2088D2F0E945C056EC08D2F0E94630565
:100E10008C2F0E94E30867C0D23F21F128F4D03F15
:100E200041F0D13FC1F043C0D33F19F1D43F79F035
:100E30003EC0112341F0053008F051C08C2F8F7156
:100E40000E9408094CC0063008F049C0F7CF8091D5
:100E50006F0382FF18C0112339F08C2F8F710E940D
:100E6000C2083DC01123C9F38C2F8F710E94E30883
:100E700036C0112329F08C2F8F710E94AD082FC02E
:100E80000E94A8082CC0112349F0CF718C2F0E941A
:100E9000C20863E08C2F0E94D70D21C081E00E9420
:100EA000F20D0230E0F082E00E94F20D18C0112332
:100EB00031F0002391F28D2F0E942A0410C00023EC
:100EC00099F2D93349F41FEF27EE33E01150204057
:100ED0003040E1F700C000008D2F0E94D40488EF5D
:100EE0008C0D843020F40E9480250E94D103DD20E7
:100EF000C9F00E94520D80FD15C0F70112820E94B8
:100F00004C0D0E94C208C7010E94B3070E944C0DFD
:100F1000DF91CF911F910F91FF90EF90DF90CF90D5
:100F20000C94E308DF91CF911F910F91FF90EF9008
:100F3000DF90CF9008950F931F93CF93DF93EC0131
:100F4000688179818A810E94040A8C010E945F096C
:100F50000E945008B801CE010E946A05DF91CF912E
:100F60001F910F910895CF93DF93EC0198818981B0
:100F70002B813C81232B31F08F3F31F481E09F3F67
:100F800019F403C081E001C080E080FD1DC0CE01E6
:100F90000E946503811110C00E94560D8823A1F0A4
:100FA0008A81882389F080916F0382FD0DC082E0E1
:100FB000DF91CF910C94F20DCE010E949B07CE01E0
:100FC000DF91CF910C943603DF91CF91089580E0AB
:100FD00090E00E94A52580E090E00E94BB250E9441
:100FE0007D0D0E94800D0E94A20D0E9421160C947E
:100FF000F0148091E4019091E5010E9417260C9471
:10100000E7070E946D0D0C94F907E92FE295EF7048
:101010004E2F50E0FA013297EE30F105B0F4EE5960
:10102000FF4F0C94552E803F91F018F4883E68F4E1
:101030000EC0843F51F40BC0883E48F0813F29F434
:1010400006C093FB882780F9089580E0089581E029
:101050000895FC01808191810E94F9090E94050890
:101060000895CF93DF9300D000D01F92CDB7DEB7A5
:101070000F900F900F900F900F90DF91CF910895E8
:10108000CF93DF9300D000D000D0CDB7DEB7269647
:101090000FB6F894DEBF0FBECDBFDF91CF9108959C
:1010A000089508950C9451080C9452080E94540815
:1010B0006093AD027093AE028093AF029093B00242
:1010C0000C94E7070C9456080F931F930091AD0200
:1010D0001091AE022091AF023091B002602B712BC3
:1010E000822B932B1F910F910C9456080F931F93F3
:1010F0000091AD021091AE022091AF023091B0028A
:1011000060237123822393231F910F910C9456081F
:101110000F931F930091AD021091AE022091AF0288
:101120003091B00260277127822793271F910F917A
:101130000C9456080C9451080E949A086093A902D6
:101140007093AA028093AB029093AC020C94E707D1
:1011500060E070E0CB010C949C080F931F9341E07A
:1011600050E060E070E08A019B0104C0000F111F95
:10117000221F331F8A95D2F7C901B8011F910F9121
:101180000C949C080F931F9341E050E060E070E0E6
:1011900004C0440F551F661F771F8A95D2F78091B0
:1011A000A9029091AA02A091AB02B091AC028A016F
:1011B0009B01082B192B2A2B3B2BC901B8011F912E
:1011C0000F910C949C080F931F9341E050E060E056
:1011D00070E004C0440F551F661F771F8A95D2F731
:1011E00040955095609570958091A9029091AA02C2
:1011F000A091AB02B091AC028A019B010823192394
:101200002A233B23C901B8011F910F910C949C081C
:101210000F931F9341E050E060E070E004C0440F82
:10122000551F661F771F8A95D2F78091A90290916A
:10123000AA02A091AB02B091AC028A019B010827DF
:1012400019272A273B27C901B8011F910F910C9438
:101250009C080F931F930091A9021091AA0220915C
:10126000AB023091AC02602B712B822B932B1F9120
:101270000F910C949C080F931F930091A902109159
:10128000AA022091AB023091AC0260237123822329
:1012900093231F910F910C949C080F931F9300911F
:1012A000A9021091AA022091AB023091AC026027F2
:1012B0007127822793271F910F910C949C08089502
:1012C0002CE0929F800D1124E82FE695E695E69597
:1012D000877051E001C0550F8A95EAF785E0E89FD5
:1012E000F0011124E557FD4F20E030E070E040812F
:1012F000CB01022E02C0969587950A94E2F7817081
:10130000819584278523842781932F5F3F4F253044
:10131000310569F708952CE0929F800D1124682F04
:10132000669566956695982F977085E0689FB001E1
:10133000112440E050E080E0FB01E40FF51FE55789
:10134000FD4F208130E0092E02C0369527950A9482
:10135000E2F721703327042E01C0220F0A94EAF726
:10136000822B4F5F5F4F4530510531F70895BF9293
:10137000CF92DF92EF92FF920F931F93CF93DF9361
:101380008C01C090A902D090AA02E090AB02F0902C
:10139000AC028091AD029091AE02A091AF02B091EB
:1013A000B002C82AD92AEA2AFB2ACFE1D0E0D70125
:1013B000C6010C2E04C0B695A795979587950A94FB
:1013C000D2F780FD04C0219790F7B12C07C0BC2E46
:1013D000B8018C2F0E940D110197A9F38B2DDF917D
:1013E000CF911F910F91FF90EF90DF90CF90BF9022
:1013F0000895CF93DF93EC010E94B709BE010E94CC
:101400000D11DF91CF9108951F93CF93DF93EB01DF
:1014100090918A02992321F0CB010E94F90913C00F
:10142000882349F0CB010E94B709182F682FCE01FD
:101430000E94600904C0CB010E948B09182FBE01D5
:10144000812F0E940D11DF91CF911F9108951F935D
:10145000CF93DF93C091B10216E08091B202C8171A
:1014600099F0D0E01C9FF0011D9FF00D1124ED5468
:10147000FD4F4081518162817381848195810E94F9
:1014800040082196C770E9CFDF91CF911F91089551
:101490004091E3025091E4026091E5027091E6020E
:1014A0008091E7029091E8020C944008EF92FF923D
:1014B0000F931F93CF93DF938091E80282958F70F3
:1014C00009F065C08091E502882309F460C080912D
:1014D000B102F090B2021091E3020091E402609137
:1014E000E6027091E70291E01F3F09F090E0C091A1
:1014F000E201D091E301292F96E0E92E8F1509F43E
:1015000046C06115710521F00F3F21F030E003C0A6
:1015100031E001C0322F90E030FD36C0E89EF0018E
:10152000E99EF00D1124DF01AD54BD4F11963C91A1
:101530001197301329C03C91311326C012963C916B
:101540001297311121C013964D915C911497461B4F
:10155000570B4C175D07C0F48091E8028F708061D3
:101560008093E802E854FD4F80818F708061808312
:1015700083EE92E00E94B307DF91CF911F910F910C
:10158000FF90EF900C94270A01968770B7CFDF91F8
:10159000CF911F910F91FF90EF9008959F92AF927E
:1015A000BF92CF92DF92EF92FF920F931F93CF9350
:1015B000DF93CDB7DEB761970FB6F894DEBF0FBEED
:1015C000CDBF8C0185E0F801DE011D9601900D92E2
:1015D0008A95E1F7D8011296EC909091E302E091A0
:1015E000E4022091E6023091E7022115310531F045
:1015F000EF3F31F481E09F3F19F403C081E001C067
:1016000080E0B82FB1709B2E80FD47C1D8014C916E
:1016100011965C9111971396AD90BC90149783EE40
:10162000C82E82E0D82EF090E502B501621B730B44
:101630002091E2013091E301FF2009F4D9C08091AB
:10164000E8026217730708F095C0282F207F09F081
:1016500052C05E1313C0491311C0FE2CE1100EC01E
:101660008F7080618093E8020E94480AC6010E9440
:10167000B3078091E802F80185834DC1AB2831F0B2
:101680005F3F31F481E04F3F19F403C081E001C0B6
:1016900080E080FD03C081E08E2502C080E090E004
:1016A000F82FF170FF2E80FF1CC08091B1022091B5
:1016B000B20236E0821709F40BC190E0389FF001C6
:1016C000399FF00D1124ED54FD4F6181561306C072
:1016D0006081461303C06281E61203C001968770E1
:1016E000E9CFFE2CEE2009F416C18091E80281605A
:1016F0008093E80254C05E1306C0491304C0E11091
:1017000002C0F80199C0C8010E942908882361F12C
:10171000EE2051F12091E802822F82958F7090E0A7
:10172000029774F08091E3029091E40298878F838E
:101730001986BB86AA862C87CE0107960E94B3071E
:1017400086E0F801A3EEB2E001900D928A95E1F7F0
:101750000E94560A0E94480A0AC05E1711F1C80189
:101760000E94290881112CC0C8010E94B307FF24E0
:10177000F394D1C0282F207F81F77A2DB98AA88AC7
:101780006E2D89890E94310883EE92E00E94B30792
:1017900086E0D6011D928A95E9F70E94480AF12C4D
:1017A000BAC04913DCCFE110DACFF8018583C80154
:1017B0000E94B30786E0D6011D928A95E9F7ABC077
:1017C000EE2091F22091E802822F82958F7090E0B6
:1017D00002970CF4B5CF8091E3029091E4029A83D2
:1017E00089831B82BD82AC822E83CE010196A6CF57
:1017F0006217730708F044C0FE2CEE2009F4B4CF42
:101800005E1330C049132EC02091E80220FD21C094
:10181000822F82958F70482F50E041155105C9F0F5
:10182000F80125834F30510541F08F5F982F929535
:10183000907F822F8F70892B8583C8010E94B30708
:1018400086E0F801A3EEB2E001900D928A95E1F7EF
:101850003CC086E0F801A3EEB2E001900D928A95BB
:10186000E1F759C0C8010E942908811169CF809110
:10187000E80281608093E802C8010E94B3074BC070
:101880007A2DB98AA88A6E2D89890E94310886E04E
:10189000D6011D928A95E9F718C0EE2009F464CFAD
:1018A000C8010E942908F82E882309F45DCF86E03C
:1018B000F801A3EEB2E001900D928A95E1F783EE74
:1018C00092E00E9424040E94560A0E94480A23C003
:1018D0004D875E878D859E850E94F909292F229567
:1018E0002F70223028F49F7039F0811105C00BC091
:1018F000243028F49F7049F4805E883020F0C801BD
:101900000E94B3079F2CF92C06C0D80115969C9114
:10191000907F91F7F8CF8F2D61960FB6F894DEBFC8
:101920000FBECDBFDF91CF911F910F91FF90EF9030
:10193000DF90CF90BF90AF909F9008951F93CF936B
:10194000DF93CDB7DEB72C970FB6F894DEBF0FBE8E
:10195000CDBF4F83588769877A878B879C87CE0155
:1019600007960E94CE0A8823D1F09F8188852A8518
:101970003B85232B31F08F3F31F481E09F3F19F4F9
:1019800003C081E001C080E080FD47C04F815885E1
:1019900069857A858B859C850E9440083EC086E0DB
:1019A000FE013796DE01119601900D928A95E1F7BE
:1019B000FF81E8856A857B856115710531F0EF3F10
:1019C00031F481E0FF3F19F403C081E001C080E001
:1019D00080FD23C02091B20230E0C90101968770DA
:1019E00099274091B10250E084179507F1F1F983EE
:1019F000EA837D836C8396E0929FD001939FB00D24
:101A00001124AD54BD4FFE01319601900D929A956F
:101A1000E1F78093B2020E94270A16E08091B1029A
:101A20009091B202891771F1189FC00111248D5451
:101A30009D4F0E94CE0A882329F1E091B1021E9F9A
:101A4000F0011124ED54FD4F408151816281738179
:101A5000848195810E9440088091B10290E00196B6
:101A6000877099278093B102D9CF0E940108109204
:101A7000B2021092B102E3EEF2E086E0DF011D92C5
:101A80008A95E9F72C960FB6F894DEBF0FBECDBF4E
:101A9000DF91CF911F9108958091E90285958595F9
:101AA000859508958091E902877008959091E902E3
:101AB000977081E009F480E008958091F50208951F
:101AC0009091F502892B8093F5020895809590916D
:101AD000F50289238093F50208951092F502089586
:101AE0009091F402892B8093F4020895809590914F
:101AF000F40289238093F40208951092F402089569
:101B00001092F30208958091EA02089508950C94CA
:101B1000860D0C94870D90916F0392FD08C09091F3
:101B2000EA02981721F08093EA020C94890D089537
:101B30008091EA02882329F01092EA0280E00C9456
:101B4000890D0895E091E401F091E5018091F5029D
:101B50008083E091E401F091E50190818091F402AD
:101B6000892B8083E091E401F091E50190818091DF
:101B7000F302892B80838091EA02882381F0E0912F
:101B8000E401F091E5019081892B80838091E4014B
:101B90009091E5010E94D12581110E94980D8091BC
:101BA000E4019091E5010C948C250C94860D9091A4
:101BB0006F0392FD10C098E0899F90011124262B9D
:101BC0002093E9020E94C2088091E90285958595DB
:101BD00085950C94D50D0C94C2081092E90280E012
:101BE0000C94D50D2091E902809582238093E9021F
:101BF000982F977099F430E0482F082E000C550B61
:101C00002417350759F090916F0392FD07C0859511
:101C1000859585950E94E3080C94ED0D08959091AB
:101C20006F0392FB222720F9281769F080FB92F9B5
:101C300090936F0380916E0390916F030E945D0EED
:101C400082E00C94F20D089580916F0382FB882747
:101C500080F991E089270C940F0E81E00C940F0E0F
:101C600080E00C940F0E6FEF7FEF80E090E00C941B
:101C7000102F80E090E00E94DC2E21E0893E9E4FF4
:101C800009F020E0822F089582E090E00C94D42E99
:101C900083E090E00C94D42ECF9384E090E00E94F7
:101CA000D42EC82F82E290E00E94D42E2C2F30E058
:101CB000A901582BCA01CF910895CF93C92F682F3E
:101CC00084E090E00E94F22E6C2F82E290E0CF91AF
:101CD0000C94F22EAB01BC018FE090E00C94042F29
:101CE000AB01BC0183E190E00C94042F60E070E054
:101CF000CB010C94700E60E070E0CB010E946A0E84
:101D00000C94760E69EE7EEF80E090E00E94102F3A
:101D100060E082E090E00E94F22E60E083E090E0DC
:101D20000E94F22E1092AD021092AE021092AF02FB
:101D30001092B00260E084E090E00E94F22E60E039
:101D400082E290E00E94F22E60E085E090E00E9446
:101D5000F22E60E086E090E00E94F22E6FEF87E0C6
:101D600090E00E94F22E40E050E0BA0188E090E05E
:101D70000E94042F60E08DE090E00E94F22E40E08F
:101D800050E0BA0188E190E00E94042F60E087E112
:101D900090E00E94F22E40E050E0BA018CE190E029
:101DA0000E94042F60E070E080E290E00E94102F1B
:101DB00040E050E0BA0188E190E00E94042F0C94CA
:101DC0007B0E0C94820E682F8EE090E00C94F22E25
:101DD0000E94BE266093030370930403809305035F
:101DE000909306036093FF027093000380930103B6
:101DF00090930203089585B7806885BF85B7806892
:101E000085BF089581E008950C94020F08950C9405
:101E1000060F0C94060F0C94090F0C94060F0C94EB
:101E20000D0F0C94060F0E94FB0E89EE91E10E94AB
:101E300076250E94110F0C940F0F0E94070F0C942F
:101E4000060F0E94A9260E94E8120C940B0F6F92B5
:101E50007F928F929F92AF92BF92CF92DF92EF923A
:101E6000FF920F931F93CF93DF93CDB7DEB72A97DF
:101E70000FB6F894DEBF0FBECDBF0E94FD128111D8
:101E80000E94E80E37EF832E32E0932E00E010E040
:101E9000E02E802F0E9427125C01F4016190719066
:101EA0004F016826792661147104B1F40F5F1F4F4A
:101EB0000430110569F78FEF89838A831B820E94A2
:101EC000B2268160782F9D838C8349815A816B81F2
:101ED0008D810E94DA0343C08091070381FD0E9437
:101EE0003012F12CCC24C394D12CC3018C219D2120
:101EF000892B71F10E94040FAC20BD208823A1F032
:101F0000FE82EF8281E0A114B10409F480E08887A9
:101F10000E94B2268160782F9A8789874E815F81DF
:101F200068858A850E94DA03000F111FF801E950C5
:101F3000FD4F80819181C826D926D182C08241E09F
:101F4000AB2809F440E06F2D8E2D0E94A51E07C01E
:101F5000F394CC0CDD1CFCE0FF12C7CFA7CF0E948E
:101F6000C91E0E940E150E9480259091F6028917C5
:101F7000D1F00E9480258093F6022A960FB6F8943D
:101F8000DEBF0FBECDBFDF91CF911F910F91FF90AC
:101F9000EF90DF90CF90BF90AF909F908F907F9009
:101FA0006F900C94D1032A960FB6F894DEBF0FBE43
:101FB000CDBFDF91CF911F910F91FF90EF90DF90F8
:101FC000CF90BF90AF909F908F907F906F9008952B
:101FD000CF93DF930E941211EC01811521E5920746
:101FE00008F045C0811530E5930708F094C0883E9D
:101FF000910528F5803E910508F0F8C0883A9105D2
:1020000070F4853A910508F07CC08130910509F49F
:1020100075C008F4E8C0049708F0E8C0E4C08F3B3E
:10202000910508F0E0C0C85AD0E0CC0FDD1FC95CB4
:10203000DD4F0990D881C02DCE019464D8C08115A0
:1020400040E2940758F4811551E0950708F0CEC09E
:102050008D3E910508F4C7C09065C9C0C11580E4E4
:10206000D80708F4C0C0DF70CE01906AC0C08115E7
:1020700025E59207A8F4811534E5930708F095C08B
:10208000811543E5940708F07BC0811552E595075B
:1020900008F061C0D82FCC27CE01816F906AA7C00D
:1020A000C11589E5D807A0F4C11528E5D20708F0C5
:1020B00082C0C11536E5D30708F095C08C2F0E9469
:1020C000A6118F7190E0D82FCC27CE0190628FC0DF
:1020D000C1154AE5D40708F474C0CE0190568115A5
:1020E000904208F080C08D2F8F710E94A611DD27CD
:1020F000D0628F71AE01582BCA0179C081E090E0A7
:1021000076C0C55AD0E0CB59DD4F8881C82FD0E0CA
:10211000CE0190646CC074E0969587957A95E1F74E
:10212000282F23703C2F337081E090E002C0880F8D
:10213000991F3A95E2F79C68AC01522B9A019C2FAB
:102140009F709695969550E2959FE0011124C901E4
:102150008C2B9D2B4CC08370992721E030E002C06E
:10216000220F331F8A95E2F79C2F9695969580E271
:10217000989FE0011124C22BD32BCE019C6837C05D
:102180008370992721E030E002C0220F331F8A9527
:10219000E2F79C2F9695969540E2949FE0011124DA
:1021A000C22BD32BCE019A6822C0D82FCC27CE01C8
:1021B000846F906A1CC0DC2FCC27CE01806F906AA0
:1021C00016C08C2F8F700E94A61194E0D695C795EB
:1021D0009A95E1F7CF70D0E0DC2FCC27D0699E0133
:1021E000282BC90104C080E090E001C0CE01DF913E
:1021F000CF91089520E3829FC0011124FC012CE0BF
:10220000729FE00DF11D1124E60FF11DEE0FFF1F6F
:10221000E05DFE4F8591949108950E94FA100E940E
:10222000E80F08958238910569F1B0F48133910582
:1022300009F46DC048F48932910509F463C08A320B
:10224000910509F469C008958533910509F455C0D5
:1022500089339105B9F00895833E910569F138F409
:10226000803E9105B1F0823E910509F10895863EC8
:102270009105A9F1873E9105B9F1843E910509F0D8
:1022800064C023C020916E0320FD4FC021FD4DC0CE
:10229000089580916E0380FD44C080916F0380FF9C
:1022A00044C080916E0384FD42C083EE4DC0809196
:1022B0006E0382FF38C0F5CF80916E0382FD33C07C
:1022C00080916F0380FD31C0ECCF80916F0381FF5F
:1022D00032C080916E0384FD2AC087EE35C08091A4
:1022E0006E0383FF26C0F5CF80916E0383FD21C06E
:1022F00080916F0381FD1FC0ECCF80916E0385FD3F
:102300001CC01DC080916E0385FD19C016C0809150
:102310006E0386FD16C017C080916E0386FD13C044
:1023200010C089E311C082EE0FC080EE0DC080E0C6
:102330000BC086EE09C084EE07C089E205C085E3C4
:1023400003C08AE201C081E390E0089590916E039A
:1023500092FF0DC0282F2871283019F4877F8460E0
:1023600006C0282F2471243011F48B7F886093FFDE
:102370000DC0282F2871283119F4877E846106C08A
:10238000282F2471243111F48B7E886120916F03F2
:1023900020FF0DC0382F3871383019F4877F8160E5
:1023A00006C0382F3171313011F48E7F886021FFE3
:1023B0000DC0282F2871283119F4877E816106C04D
:1023C000282F2171213111F48E7E886194FD877E42
:1023D000089580E008950C94330E0E94FD128FE35F
:1023E0009CE90197F1F700C000000E94FD1280E017
:1023F0000E94271280FF04C00E94EB110C941B273F
:1024000008950C94ED110E94390E811102C00E94B2
:10241000E10E0E94440E809307030E944C0E90939D
:102420006F0380936E030E9401120E94480E682F72
:1024300070E080E090E00E9462086091A9027091D3
:10244000AA028091AB029091AC020C949A08E82FFA
:10245000F0E0EE0FFF1FE858FC4F80819181089556
:10246000089580EA8A95F1F7089500C008950C94C4
:10247000311208950C9439120C943A120C943912BA
:102480000C943E12F894E82FE295EF70F0E031A141
:10249000282F2F7081E090E001C0880F2A95EAF77D
:1024A000982F9095932391A392A1892B82A378943E
:1024B00008950F931F93CF93DF93C4E7D2E08991E0
:1024C0008F3F11F00E94421282E0C837D807B9F757
:1024D000C8E6D2E004E712E089918F3F11F00E9434
:1024E00042120C171D07C1F7DF91CF911F910F9179
:1024F0000895BF92CF92DF92EF92FF920F931F93B6
:10250000CF93DF938C01C62FD0E0CE018C589D4F26
:102510006C01FC0190819F3F09F450C0B62EF894E5
:10252000E92FE295EF70F0E081A19F7021E030E0AB
:1025300001C0220F9A95EAF7822B81A382A12095F0
:10254000282322A378940E943512E8E6F2E044E7BB
:1025500052E021E030E0E12CF12C61916F3F89F0F5
:10256000A62FA295AF70B0E090968C9190E06F701E
:1025700002C0959587956A95E2F780FD02C0C90172
:1025800002C080E090E0E82AF92A220F331F4E179C
:102590005F0719F7F60180818F3F11F00E94421208
:1025A00061E0E114F10409F460E08B2D0E94371220
:1025B000CC0FDD1FC00FD11FF982E882DF91CF91D0
:1025C0001F910F91FF90EF90DF90CF90BF900895F3
:1025D0000E94591288E0E8E7F3E0DF01982F1D928E
:1025E0009A95E9F7E0E7F3E0DF011D928A95E9F7B4
:1025F00084E00E9448130C944103FF920F931F93B1
:10260000CF93DF93CDB7DEB728970FB6F894DEBF30
:102610000FBECDBF8E010F5F1F4F88E0F8011192F2
:102620008A95E9F7F12C6F2DC8010E947912F39475
:10263000F4E0FF12F8CF48E050E0B80180E793E003
:102640000E94B72EFF24F394009709F4F12C892BF4
:1026500041F088E0F801A0E7B3E001900D928A957F
:10266000E1F72F2D44E068E773E080E793E00E94F4
:1026700049130E9449038F2D28960FB6F894DEBFA8
:102680000FBECDBFDF91CF911F910F91FF900895A5
:102690000895FF920F931F93CF93DF93F82E092F86
:1026A000162FD72FC42F222349F081E080930A03ED
:1026B0000E94B226909309038093080380910A0335
:1026C0008823D9F080910803909109030E94CA26BB
:1026D000059798F0EF2DF02FA12FBD2F80E090E00F
:1026E0004C2F50E08417950734F4219131912D93AC
:1026F0003D930196F7CF10920A03DF91CF911F917E
:102700000F91FF9008950E94D1280E94210F0C94F0
:10271000DD280E94E1280E94270F0C94FB280E94CC
:1027200038260E94B8280E94130F0E9483130E942B
:1027300089130E941D0FFBCF8091110380FF0BC0F6
:102740006091EB0185E0689FB00111247595679554
:10275000759567952BC081FF09C06091EB0185E0FD
:10276000689FB00111247595679520C082FF07C04E
:102770006091EB0185E0689FB001112417C0909132
:1027800010039923D1F06091EA01961788F7209100
:10279000EB0185E0289F90011124929FA001939F57
:1027A000500D112470E0CA010E941F2E603871057F
:1027B00040F46115710519F406C065E070E0862FDC
:1027C00008958FE7089581E008958091110380FFB7
:1027D00008C06091E70170E07595679575956795FC
:1027E00021C081FF06C06091E70170E07595679593
:1027F00019C082FF04C06091E70170E010C09091A1
:102800000F03992399F06091E6019617A0F7809144
:10281000E701899FC001112470E00E941F2E6038DB
:10282000710540F46115710519F406C061E070E0AE
:10283000862F08958FE7089581E008958D3E21F455
:102840000E949C13819504C08E3E29F40E949C1323
:102850008093150308958F3E21F40E949C13819567
:1028600004C0803F29F40E949C13809314030895B0
:10287000893F19F40E94E51305C08A3F31F40E9494
:10288000E51381958093160308958B3F21F40E94F0
:10289000E513819504C08C3F29F40E94E5138093D1
:1028A000170308959FE0980F983078F421E030E006
:1028B000A90102C0440F551F9A95E2F7CA019091F1
:1028C0001303892B8093130308958D3F21F4809186
:1028D000110381600BC08E3F21F48091110382604F
:1028E00005C08F3F29F48091110384608093110308
:1028F00008958D3E39F49091150397FF35C01092DD
:10290000150359C08E3E29F4909115031916BCF396
:102910002BC0909114038F3E29F497FF25C010928D
:10292000140349C0803F19F41916CCF31DC09091CF
:102930001603893F29F41916BCF4109216033BC004
:102940008A3F19F497FF10C0F8CF8B3F39F490916C
:10295000170397FF09C0109217032DC08C3F21F475
:10296000909117031916BCF39FE0980F983080F4EC
:1029700021E030E0A90102C0440F551F9A95E2F70B
:10298000CA0180959091130389238093130313C088
:102990008D3F21F4809111038E7F0BC08E3F21F477
:1029A000809111038D7F05C08F3F29F48091110321
:1029B0008B7F8093110380911403811106C0809155
:1029C0001503811102C0109210038091160381112A
:1029D00006C080911703811102C010920F03089561
:1029E0000E94B22620911403211104C020911503E6
:1029F000222321F090930E0380930D032091160360
:102A0000211104C020911703222321F090930C037D
:102A100080930B0382E193E00C949725EF92FF9251
:102A20000F931F93CF93DF9300D000D000D0CDB78A
:102A3000DEB786E0E2E1F3E0DE01119601900D924F
:102A40008A95E1F7E0901403F090150300911603C6
:102A5000109117031092140310921503109216038D
:102A600010921703E11003C0FF2009F45DC08091AC
:102A70000D0390910E030E94CA26AC0190911003A1
:102A8000992339F02091EC0130E02417350758F0F4
:102A90004BC02091ED018AE0289F9001112424175A
:102AA000350718F041C09F3F19F09F5F90931003C6
:102AB000EE2061F00E949C131E1414F09FEF01C0E1
:102AC00091E0989F902D112490931403FF2061F0C2
:102AD0000E949C131F1414F09FEF01C091E0989F77
:102AE000902D112490931503309114033323E1F0BA
:102AF000209115032223C1F045EB3403C0011124BA
:102B0000992319F09093140303C081E08093140378
:102B100035EB2303C0011124992319F09093150379
:102B200003C081E080931503011103C0112309F450
:102B30005DC080910B0390910C030E94CA26AC01EA
:102B400090910F03992339F02091E80130E0241788
:102B5000350758F04BC02091E9018AE0289F900189
:102B600011242417350718F041C09F3F19F09F5FCB
:102B700090930F03002361F00E94E513101614F0E8
:102B80009FEF01C091E0989F902D11249093160320
:102B9000112361F00E94E513111614F09FEF01C09C
:102BA00091E0989F902D1124909317033091160374
:102BB0003323E1F0209117032223C1F045EB3403C6
:102BC000C0011124992319F09093160303C081E0EA
:102BD0008093160335EB2303C0011124992319F0C8
:102BE0009093170303C081E080931703809114032F
:102BF00081110BC080911503811107C080911603CC
:102C0000811103C08091170381110E94F014EB829F
:102C1000FC820D831E8386E0FE013196A2E1B3E0C3
:102C200001900D928A95E1F726960FB6F894DEBFD3
:102C30000FBECDBFDF91CF911F910F91FF90EF900D
:102C40000895E2E1F3E086E0DF011D928A95E9F75D
:102C50001092100310920F03109211030895EF9237
:102C6000FF920F931F93CF93DF938B01682F111166
:102C70000AC0442329F0E82FF0E0E05FFC4F6491A4
:102C8000762F862F75C0212F30E0E82FF0E0442307
:102C900021F0E05FFC4FE491F0E046E0049FC001CA
:102CA0001124CFEFD0E0BE010E940B2E4BEA460369
:102CB000C001479F900D1124800F911D800F911D21
:102CC000982F990F890FAE01421B530B4E9FD001D5
:102CD0004F9FB00D5E9FB00D11249B2F189FA00138
:102CE0001124452F55278E01041B150B0E9FA001A3
:102CF0000F9F500D1E9F500D11247E01E81AF10800
:102D0000E29E8001E39E100DF29E100D1124212FF2
:102D10003327C21BD30BCE9F9001CF9F300DDE9F78
:102D2000300D112462307105A9F048F46115710568
:102D300069F061307105C9F48B2F752F0DC06430B7
:102D4000710581F058F06630710579F47E2F8B2F74
:102D5000932F0DC0832F7B2F9E2F09C08E2F7B2F8B
:102D6000952F05C08E2F732F02C07E2F852F692FC0
:102D7000DF91CF911F910F91FF90EF90089541E067
:102D80000E942F16089520E030E0869F212D969F07
:102D9000200D311D1124C9010895BC018230910517
:102DA00008F40895613E8EE1780748F49B0195E0B0
:102DB000369527959A95E1F748E0420F01C04FEF0D
:102DC00091E0242F30E0290F311D35952795229F62
:102DD000F001239FF00DF00D11246E177F0718F4FA
:102DE0004FEF420F04C02F3F39F091E0920F491787
:102DF00040F78FEF890F08958FEF08954091F40108
:102E00005091F50125E038E0429FC001439F900DAD
:102E1000529F900D1124875E994C9093F5018093F9
:102E2000F401890F0895482F982F46FD9095E92FBA
:102E3000EF739F7046FD9F5FE295EF70EE0FF0E03D
:102E4000E858FD4F2181299F802D212D1124829545
:102E50008F702295207F822B3081982F930F892F9E
:102E600047FD819580580895E42FF0E0EE0FFF1F95
:102E7000EC5CFE4F408134EE439F412D1124E72F3F
:102E8000F0E050E0445E5F4FDA01A21BB1099D0102
:102E9000B7FF03C031952195310993E0220F331F0D
:102EA0009A95E1F7AF01421B530B9A0157FF02C0FD
:102EB00020E030E0279F212D1124722F0895E42F68
:102EC000F0E0EE0FFF1FEC5CFE4F408134EE439FBD
:102ED000412D1124E82FF0E050E0445E5F4FDA010D
:102EE000A21BB1099D01B7FF03C03195219531099E
:102EF00093E0220F331F9A95E1F7AF01421B530B6A
:102F00009A0157FF02C020E030E0582F259F212D65
:102F10001124822F0895622F0895E42FF0E0EE0F20
:102F2000FF1FEC5CFE4F6081621B0895E42FF0E010
:102F3000EE0FFF1FEC5FFE4F61A9621B0895A22FE9
:102F400050E0FA01EE0FFF1FEC5FFE4F91A9905287
:102F500097FD9195440F551FFA01EC5CFE4F3081AF
:102F6000232F30E02A1B3109290F311D97FD3A9597
:102F7000620F0895EF920F931F9393E0099F8001D2
:102F80001124159507956E2D600F1F910F91EF90ED
:102F900008950F93CF93DF93D72FC82F47FD419507
:102FA000E8E3F0E0CF01841B910947FD9395889FEA
:102FB000B001899F700D700D1124229FC001239FC5
:102FC000900D900D1124860F971F0E94CD16682F2B
:102FD000660F860F682F600F7D2F8C2FDF91CF91AA
:102FE0000F9108950F931F93522F10E0F801EE0FE9
:102FF000FF1FEC5FFE4FE1A9F0E0B0979F01520385
:10300000D001539FB00D1124000F111FF801EC5C8B
:10301000FE4F008110E00057110940039001419FCD
:10302000300D11242A0F3B1F37FF02C021583F4F9C
:10303000220F232F221F330B620F1F910F91089530
:103040000F931F93522F10E0F801EE0FFF1FEC5F5C
:10305000FE4FE1A9F0E0B097EE0FFF1F9F01520372
:10306000D001539FB00D1124000F111FF801EC5C2B
:10307000FE4F008110E000571109000F111F40039F
:103080009001419F300D11242A0F3B1F37FF02C0D2
:1030900021583F4F220F232F221F330B620F1F9106
:1030A0000F9108950F931F9310E0F801EE0FFF1F8B
:1030B000EC5CFE4F9081905797FD9195000F111F8A
:1030C000F801EC5FFE4FE1A9F0E0B097DF01AA0F35
:1030D000BB1F8D010E0F1F1F2003D001219FB00DBC
:1030E0001124E8E3F0E0E91BF10997FDF3959F0156
:1030F000220F331F89010E0F1F1F40039001419FB4
:10310000300D11242A0F3B1F37FF02C021583F4FBB
:10311000220F232F221F330B620F1F910F9108954F
:103120000F931F93CF93DF93D62F072F182FC42F02
:10313000822F0E941317EC2FF0E0EE0FFF1FEC5CC4
:10314000FE4F90819058890F87FD8195880F682FD9
:103150002CE0629F612D11246D0F702F812FDF9164
:10316000CF911F910F910895E42FF0E0EE0FFF1F14
:10317000EC5CFE4F9081921B97FD9195292F38E1D1
:10318000239F212D1124620F0895FC019B010097BC
:1031900021F477FF2BC080E80895AC0197FF04C0AD
:1031A00044275527481B590BB901640F751F37FD7C
:1031B0000CC0241B350BC901A5E0880F991FAA95E7
:1031C000E1F70E941F2E80E20CC0CB0165E0880F62
:1031D000991F6A95E1F7BA01621B730B0E941F2EBB
:1031E00080E6861BF7FF03C08195089580E008956F
:1031F000FF920F931F93CF93DF93F62E172FD82FA5
:10320000C901C72FC01BBA010E94C518982F990F7A
:10321000890F7C2F781B719F712D11246F2D8D2F9D
:10322000DF91CF911F910F91FF900895FF920F931F
:103230001F93CF93DF93F62ED72F182FC901C12FDD
:10324000C01BBA010E94C518982F990F890FC81B7F
:103250002C2F219F212D1124822F6F2D7D2FDF9167
:10326000CF911F910F91FF900895EF920F931F93AD
:10327000CF93DF93D62F172FC82FC9010E19070F31
:10328000BA010E94C518702F781B719F712D1124EF
:103290006D2F8C2FDF91CF911F910F91EF9008959B
:1032A000EF920F931F93CF93DF93D62FC72F182F33
:1032B000C9010E19010FBA010E94C518081B202F61
:1032C000219F212D1124822F6D2F7C2FDF91CF91F3
:1032D0001F910F91EF9008950F93CF93DF93D72F06
:1032E000C82FC901BA010E94C518682F600F7D2F31
:1032F0008C2FDF91CF910F910895EF920F93CF9381
:10330000DF93D72FC82FC9010E19BA010E94C51823
:10331000602F681B7D2F8C2FDF91CF910F91EF9045
:1033200008950E94BF160895E0E8F3E085E38083E6
:103330008091030290910402A091050281839283FF
:10334000A3838FE784838FEF858346E050E06CE1B1
:1033500070E0CF010E94E22E109250030895E09198
:103360008602F09187020994E0918202F091830233
:1033700009944F925F926F927F928F929F92AF9239
:10338000BF92CF92DF92EF920F931F93CF93DF9371
:103390002C013B01FC01C0818CE0C89FC02D112491
:1033A000DCE0DC0FDB3308F0DAE360918403669540
:1033B00080918603909187030E94C316182FCD1722
:1033C00008F044C08C2E912CF401E855FE4F9081FA
:1033D000F20181818923C1F1F401EE0FFF1FEC5C42
:1033E000FE4FC080D12CF0E7CF1AD108F401EE0FC8
:1033F000FF1FEC5FFE4FA1A8B12C80E2A81AB10814
:10340000CC9C9001CD9C300D300D1124AA9CC001A4
:10341000AB9C900D900D1124820F931F0E94CD162E
:10342000082F609181037091820380918303E12EC4
:103430009501A601F30109950E949119462F282FA5
:10344000672FC4010E94B419CF5FB9CF81E0DA338E
:1034500008F080E0DF91CF911F910F91EF90DF9006
:10346000CF90BF90AF909F908F907F906F905F9024
:103470004F90089565E379E10C94B91960E579E11D
:103480000C94B9196AEB77E10C94B9196DE779E1FD
:103490000C94B919AF92BF92CF92DF92EF92FF9244
:1034A0000F931F93CF93DF936C015B01FC01C081ED
:1034B0008CE0C89FC02D1124DCE0DC0FDB3308F06A
:1034C000DAE3609184036695809186039091870387
:1034D0000E94C316182FCD1778F5EC2EF12CF701AA
:1034E000E855FE4F9081F6018181892319F1F7019A
:1034F000EE0FFF1FEC5FFE4F21A930E02052310993
:10350000F701EE0FFF1FEC5CFE4F408150E040578B
:103510005109609181037091820380918303012F8F
:10352000F50109950E949119462F282F672FC70191
:103530000E94B419CF5FCFCF81E0DA3308F080E08A
:10354000DF91CF911F910F91FF90EF90DF90CF907F
:10355000BF90AF90089568EF78E10C944A1A66E145
:1035600079E10C944A1A69EC77E10C944A1A6CE6FA
:1035700079E10C944A1ABF92CF92DF92EF92FF92B8
:103580000F931F93CF93DF938C017B01FC01C081CC
:103590008CE0C89FC02D1124DCE0DC0FDB3308F089
:1035A000DAE3609184036695669521E0620F08F482
:1035B0006FEF80918603909187030E94C316B82E07
:1035C000CD17F0F4CC2ED12CF601E855FE4F9081AA
:1035D000F8018181892391F06091810370918203C8
:1035E000809183032B2D4C2FF70109950E9491198F
:1035F000462F282F672FC6010E94B419CF5FE0CF56
:1036000081E0DA3308F080E0DF91CF911F910F91D4
:10361000FF90EF90DF90CF90BF90089564E377E143
:103620000C94BB1A6FE577E10C94BB1A6BE877E159
:103630000C94BB1A6DE877E10C94BB1A66E977E14C
:103640000C94BB1A6FE977E10C94BB1A60E978E13E
:103650000C94BB1A64EB78E10C94BB1A7F928F92A6
:103660009F92AF92BF92CF92DF92EF92FF920F9311
:103670001F93CF93DF936C015B01FC01C0818CE051
:10368000C89FC02D1124DCE0DC0FDB3308F0DAE347
:103690006091840366956695809186039091870377
:1036A0000E94C316182F80E4810F0E94131790E820
:1036B000F92EF80E812F0E94131720E8722E780E33
:1036C000CD1700F58C2E912CF401E855FE4F90811A
:1036D000F60181818923A1F06091810370918203B9
:1036E00080918303E12E0C2F272D4F2DF501099595
:1036F0000E949119462F282F672FC4010E94B419E8
:10370000CF5FDECF81E0DA3308F080E0DF91CF9148
:103710001F910F91FF90EF90DF90CF90BF90AF90EF
:103720009F908F907F90089562EF77E10C942E1B0D
:1037300060E278E10C942E1B62E578E10C942E1B7C
:10374000DF92EF92FF920F931F93CF93DF938C0141
:10375000DC018C91CCE08C9FC02D1124DCE0DC0FCF
:10376000DB3308F0DAE3609181037091820380918A
:1037700083030E949119F62EE72ED82ECD1798F4C8
:10378000EC2FF0E0DF01A855BE4F8C91D8011196C7
:103790009C91982331F02D2D4F2D6E2DCF010E943D
:1037A000B419CF5FEBCF81E0DA3308F080E0DF912E
:1037B000CF911F910F91FF90EF90DF900895AF92FE
:1037C000BF92CF92DF92EF92FF920F931F93CF930E
:1037D000DF938C01FC01C0818CE0C89FC02D1124B7
:1037E000DCE0DC0FDB3308F0DAE3E0908203F090FA
:1037F0008303D09081036D2D7E2D8F2D0E94911912
:10380000C62EB72EA82E609184036D0D7E2D8F2DB0
:103810000E949119F62EE72ED82ECD17B8F48C2FD2
:1038200090E0FC01E855FE4F3081F801218123230F
:1038300059F030FF04C02D2D4F2D6E2D03C02A2DC1
:103840004C2D6B2D0E94B419CF5FE7CF81E0DA33A6
:1038500008F080E0DF91CF911F910F91FF90EF90E2
:10386000DF90CF90BF90AF900895BF92CF92DF923C
:10387000EF92FF920F931F93CF93DF936C01FC01A4
:10388000C0818CE0C89FC02D1124DCE0DC0FDB334D
:1038900008F0DAE300918203B0908303209184035F
:1038A00010E4129F112D1124CD1718F5EC2EF12CD8
:1038B000F701E855FE4F9081F60181818923B9F027
:1038C000F701EE0FFF1FEC5FFE4F81A982958F700D
:1038D00060918103819F600D1124702F8B2D0E94B8
:1038E0009119462F282F672FC7010E94B419CF5F67
:1038F000DBCF81E0DA3308F080E0DF91CF911F91D8
:103900000F91FF90EF90DF90CF90BF900895BF92FE
:10391000CF92DF92EF92FF920F931F93CF93DF939B
:103920007C01FC01C0818CE0C89FC02D1124DCE02B
:10393000DC0FDB3308F0DAE3C0908203B09083033E
:103940002091840330E4D32E3D2D329F312D11245C
:10395000D32ECD1738F50C2F10E0F801E855FE4FA7
:103960009081F70181818923D9F0F801EE0FFF1FC3
:10397000EC5CFE4F6081D69EB001112495E07595F8
:1039800067959A95E1F780918103680F7C2D8B2DC7
:103990000E949119462F282F672FC8010E94B41941
:1039A000CF5FD7CF81E0DA3308F080E0DF91CF91AD
:1039B0001F910F91FF90EF90DF90CF90BF900895EF
:1039C000DF92EF92FF920F931F93CF93DF938C01BF
:1039D000DC01CC918CE0C89FC02D1124DCE0DC0F11
:1039E000DB3308F0DAE3E0908103F0908203D090BB
:1039F000830360918403669566956695809186033E
:103A0000909187030E94C3160E941317805887FD68
:103A10008195880F282F3D2D239F212D1124822F42
:103A2000B7010E949119F62EE72ED82ECD1798F4E3
:103A3000EC2FF0E0DF01A855BE4F8C91D801119614
:103A40009C91982331F02D2D4F2D6E2DCF010E948A
:103A5000B419CF5FEBCF81E0DA3308F080E0DF917B
:103A6000CF911F910F91FF90EF90DF900895DF921B
:103A7000EF92FF920F931F93CF93DF93EC01FC0122
:103A8000E855FE4F9081692381F1D0908203009127
:103A9000830310918103E12EF12C0E94A72E282F81
:103AA000C7018C549F4F68E671E00E941F2E8E194B
:103AB0009F0997FD03969595879595958795237012
:103AC000612F289F600D11247D2D802F0E94911958
:103AD000462F282F672FCE01DF91CF911F910F9195
:103AE000FF90EF90DF900C94B419DF91CF911F916C
:103AF0000F91FF90EF90DF900895CF92DF92FF92A9
:103B00000F931F93CF93DF938C01FC01C281C111EE
:103B10001DC06091840320E1620F08F46FEF809173
:103B20008603909187030E94C3166AE070E00E94AA
:103B30000B2E892B59F50E94A72E6AE370E00E9494
:103B40001F2EF80161810E94371D20C0FC01808179
:103B5000CCE08C9FC02D11249CE0F92EFC0EFAE3E2
:103B6000FF1510F48AE3F82ED0E0CF2CD12CCC1521
:103B7000DD053CF4F8016181CE010E94371D2196DC
:103B8000F6CFC1E0F9E3FF1508F4C0E08C2FDF9118
:103B9000CF911F910F91FF90DF90CF9008951F93C9
:103BA000CF93DF93FC01E855FE4F20816223D1F0D3
:103BB000EC010E94A72E182F0E94A72E8F77782F36
:103BC00020E8720F08F47FEF612F809183030E9439
:103BD0009119462F282F672FCE01DF91CF911F918A
:103BE0000C94B419DF91CF911F910895CF92DF9279
:103BF000FF920F931F93CF93DF938C01FC01C2813F
:103C0000C1111DC06091840320E1620F08F46FEFC1
:103C100080918603909187030E94C31665E070E04F
:103C20000E940B2E892B59F50E94A72E6AE370E0A3
:103C30000E941F2EF80161810E94CF1D20C0FC014F
:103C40008081CCE08C9FC02D11249CE0F92EFC0ECD
:103C5000FAE3FF1510F48AE3F82ED0E0CF2CD12C34
:103C6000CC15DD053CF4F8016181CE010E94CF1D29
:103C70002196F6CFC1E0F9E3FF1508F4C0E08C2FE0
:103C8000DF91CF911F910F91FF90DF90CF9008951A
:103C9000DF92EF92FF920F931F93CF93DF938C01EC
:103CA000DC01CC918CE0C89FC02D1124DCE0DC0F3E
:103CB000DB3308F0DAE3E0908203F0908303D090E6
:103CC000810360918403669566956695809186036D
:103CD000909187030E94C3160E941317805887FD96
:103CE0008195880F682F2CE0629F612D11246D0D46
:103CF0007E2D8F2D0E94BF16F62EE72ED82ECD17C3
:103D000098F4EC2FF0E0DF01A855BE4F8C91D8015C
:103D100011969C91982331F02D2D4F2D6E2DCF01B2
:103D20000E94B419CF5FEBCF81E0DA3308F080E076
:103D3000DF91CF911F910F91FF90EF90DF90089549
:103D4000E0918402F091850209940C94020F089589
:103D50000C94A71E0E94A81E0C94A71E08950C94F4
:103D6000AE1ECF93DF93FC01C081C1508CE0C89F91
:103D7000C02D1124DCE0DC0FDB3308F0DAE36D2F1B
:103D80008C2F0E94AF1E6D2F8C2FDF91CF910C9442
:103D9000AE1E5F926F927F928F929F92AF92BF9270
:103DA000CF92DF92EF92FF920F931F93CF93DF9307
:103DB0000E94BE2660935103709352038093530375
:103DC0009093540330918003232F237021F0F32E1E
:103DD000F694F69401C0F12C2091EE01213091F07F
:103DE00028F0223091F12330E1F152C21092EF011C
:103DF000609386037093870380938803909389036D
:103E000081E02CC09091F201F9120DC0832F8370D4
:103E100090E04091F30150E021E08417950709F408
:103E200020E0822F01C081E081708093F1018091B8
:103E300085039091F0019817A9F18093F00140E07B
:103E400060E080E00E94A01E2DC0F092F201832F5E
:103E500083708093F3010E94AF1983E08093EE0199
:103E600017C280915003882351F046E050E06CE186
:103E700070E080E893E00E94E22E1092500360917F
:103E800086037091870380918803909189030E9433
:103E9000D926603171058105910508F4F9C11092A8
:103EA000EE01F6C18F2D90E08E31910590F1809159
:103EB000EF018F5F8093EF0182E08093EE018091AC
:103EC000F101811122C0FF2041F20E94AA1E8FEE53
:103ED00091E0DF91CF911F910F91FF90EF90DF90D4
:103EE000CF90BF90AF909F908F907F906F905F909A
:103EF0000C94B11E8FEE91E00E94A01B9091EF01F7
:103F00009F5F9093EF018823B9F2FF2009F4C0C1AD
:103F1000DCCFFC01E059FF4F0C94552E8091F1014C
:103F2000882309F4B3C140E060E080E00E94A01E55
:103F3000ADC18FEE91E00E94DF1BE0CF8FEE91E0EC
:103F40000E94351CDBCF8FEE91E00E94871CD6CFFC
:103F50008FEE91E00E94E01CD1CF8FEE91E00E94A5
:103F60000E1BCCCF8FEE91E00E94121BC7CF8FEEBD
:103F700091E00E94AB1AC2CF8FEE91E00E94AF1A7F
:103F8000BDCF8FEE91E00E943A1AB8CF8FEE91E04C
:103F90000E943E1AB3CF8FEE91E00E94161BAECF67
:103FA0008FEE91E00E941A1BA9CF8FEE91E00E9444
:103FB0001E1BA4CF8FEE91E00E94221B9FCF8FEE9D
:103FC00091E00E94421A9ACF8FEE91E00E94B31ABC
:103FD00095CF8FEE91E00E94B71A90CF8FEE91E0CF
:103FE0000E94461A8BCF8FEE91E00E94941B86CFE1
:103FF0008FEE91E00E94981B81CF8FEE91E00E949E
:104000009C1B7CCF8FEE91E00E947D1D77CF8FEEC1
:1040100091E00E94F61D72CF8FEE91E00E94481E43
:104020006DCF8FEE91E00E94261B68CF8FEE91E05E
:104030000E942A1B63CF40914C0350914D03609125
:104040004E0370914F038091860390918703A09156
:104050008803B091890384179507A607B70708F46A
:1040600015C10E94FE16182F0E94FE169AE3891BA6
:10407000F0F7890FC82FD0E0FE01E855FE4F909170
:10408000F0018081892309F4FFC011FF04C020E002
:1040900040E060E013C00E94FE16182F0E94FE163A
:1040A0008695782F2FE7720F08F47FEF612F8091AC
:1040B00083030E949119462F282F672FCE010E945B
:1040C000B4192091840330E1230F08F42FEF60E14D
:1040D000822F90E00E94C316BC0184EF91E00E9401
:1040E0000B2E8091860390918703A0918803B09155
:1040F0008903860F971FA11DB11D80934C039093D8
:104100004D03A0934E03B0934F03C0C040914803AA
:104110005091490360914A0370914B03809186034B
:1041200090918703A0918803B09189038417950724
:10413000A607B70708F4AAC06091810370918203B3
:10414000809183030E949119E62E772E682EC8E194
:10415000D3E004E011E028E4A22E23E0B22E4801CF
:104160006E0185E0582EF6018081F401882329F044
:104170008081262D4E2D672D04C0808120E040E0F7
:1041800060E090E00E94B419F601818181936F0193
:104190005A94FFEF8F1A9F0A5110E5CF48016E0124
:1041A0009BE0592EF6018385F401882329F083854D
:1041B000262D4E2D672D04C0838520E040E060E071
:1041C00090E00E94B419F601828583875A94F1E049
:1041D000CF1AD10881E0881A9108E6E05E12E2CF9A
:1041E0008E81F801882329F08681262D4E2D672D9A
:1041F00004C0868120E040E060E090E00E94B419B5
:104200008D81F801882329F08581262D4E2D672D7B
:1042100004C0858120E040E060E090E00E94B41995
:104220000E94FE16837091E009F090E09D839E83CA
:104230002C96045F1F4FAC16BD0609F090CF20915D
:10424000840330E1230F08F42FEF60E1822F90E028
:104250000E94C316BC0188EB9BE00E940B2E80914C
:10426000860390918703A0918803B0918903860FFC
:10427000971FA11DB11D8093480390934903A093FC
:104280004A03B0934B0302C081E038CE80E036CEC3
:10429000DF91CF911F910F91FF90EF90DF90CF9022
:1042A000BF90AF909F908F907F906F905F90089598
:1042B000E0918002F091810209950E94390E8111EE
:1042C00004C00E94E10E0E94941946E050E06CE1A7
:1042D00070E080E893E00E94C42E10925003809119
:1042E00080038C7F11F40C94941908950895E0E8EC
:1042F000F3E0208191E0922790831092EE0190915B
:104300005003892B80935003089581E00C9477210A
:10431000909180039370A1F0811102C0946007C056
:104320008E3110F0946703C0880F880F982B9093FC
:1043300080031092EE0180915003682B609350032C
:10434000089561E00C948821682F909180039695E0
:1043500096959F5F9E3110F4892F01C081E00C94E7
:10436000882181E00C94A421682F90918003969578
:104370009695915011F0892F01C08DE10C94882100
:1043800081E00C94B42190918003937071F080933C
:10439000810360938203493708F048E74093830321
:1043A00080915003282B209350030895A0E8B3E098
:1043B0001196EC911197F0E0282F13964C911397DA
:1043C00012966C91CF0108960C94C32181E00C9455
:1043D000D621A0E8B3E01196EC911197F0E0282FD8
:1043E00013964C91139712966C91CF0108970C94E9
:1043F000C32181E00C94E921E0E8F3E0628120E14F
:10440000620F08F46FEF9181282F4381892F90E08C
:104410000C94C32181E00C94FC21E0E8F3E062817C
:1044200020E1621B08F460E09181282F4381892FED
:1044300090E00C94C32181E00C940D22E0E8F3E0BD
:10444000438120E1420F08F44FEF9181282F6281D0
:10445000892F90E00C94C32181E00C941E22E0E8A7
:10446000F3E0438120E1421B08F440E09181282FD2
:104470006281892F90E00C94C32181E00C942F225B
:104480008093840380915003682B609350030895B8
:104490002091840330E1230F08F42FEF682F822F3F
:1044A0000C94402281E00C9448222091840330E156
:1044B000231B08F420E0682F822F0C94402281E017
:1044C0000C9455220895FC01EE0FFF1F8E0F9F1FC5
:1044D000FC01E657FC4F6183408322830895EAE89C
:1044E000F3E094E0E833F90729F0818360834283A5
:1044F0003396F7CF08956AE370E08AE893E00C946E
:104500002323882311F0FA0101C0FB0109941F93B2
:10451000CF93DF93FB011281112309F48CC0EC01CE
:104520000E945D0D8272CB3CFCE5DF0709F46EC092
:1045300048F5C63CECE5DE0709F454C070F4C43C11
:104540009CE5D90709F442C008F045C0C33CDC45EE
:1045500009F074C00E94852170C0C83C9CE5D90751
:1045600009F44AC008F443C0C93CFCE5DF0709F47C
:1045700048C0CA3CDC4509F061C04DE352E26CE240
:1045800072E22DC0C03DECE5DE0709F450C088F4AE
:10459000CD3C9CE5D90709F443C0E8F1CE3CFCE5ED
:1045A000DF0709F442C0CF3CDC4509F047C085E095
:1045B0003FC0C73D9CE5D90728F4C23DDC45E8F57E
:1045C00082E136C0CE35DD45C1F138C040EC51E264
:1045D00061EB71E204C041EB51E260EC71E20E94D8
:1045E00081222BC049EF51E266EE71E2F8CF46EE30
:1045F00051E269EF71E2F3CF4BE152E26AE072E21D
:10460000EECF4AE052E26BE172E2E9CF4CE252E2D5
:104610006DE372E2E4CF4FE552E262E572E2DFCF92
:1046200042E552E26FE572E2DACF81E001C08DE04F
:104630000E94A12102C011E001C010E0812FDF9192
:10464000CF911F9108953E9A28B12F7B38B13064E5
:104650004FB7F894FC01CB01880F991F680F791FA1
:104660006E0F7F1FE617F70789F0819198E038B940
:10467000000000C087FF28B9880F000000C000C0FC
:1046800000C028B900C09A9591F7ECCF4FBF8FE5D5
:1046900094E00197F1F700C000000895CF93DF93F5
:1046A000EC01FB018281882309F426C1C430FDE5B9
:1046B000DF0760F4CB3F9CE5D90768F49E012250E8
:1046C0003C452431310508F018C105C0C236EDE57E
:1046D000DE0709F012C10E944C0E90936F03809385
:1046E0006E03C031FCE5DF0709F4CAC008F041C021
:1046F000C8309CE5D90709F4A4C0F0F4C430FCE547
:10470000DF0709F48CC068F4C2309CE5D90709F4CE
:1047100082C0C330DC4509F0E5C080916E03826041
:10472000DFC0C630FCE5DF0709F483C008F085C0B0
:1047300080916E038860D4C0CC309CE5D90709F421
:1047400090C068F4CA30FCE5DF0709F47EC008F0C9
:1047500084C00E94010880916E038068C1C0CE3081
:104760009CE5D90709F481C008F086C080916E03EA
:1047700094C0CD3FFCE5DF0709F47BC038F5C431B8
:104780009CE5D90709F49AC058F4C231FCE5DF076B
:1047900009F47AC008F07EC080916E038F7BA0C0C0
:1047A000CB3F9CE5D907F1F108F03FC0C531DC45AE
:1047B00009F098C080916E0382FB222720F991E0D6
:1047C000922790FB82F990FB83F98AC0C1308DE576
:1047D000D80709F467C050F480916F03CF3FECE530
:1047E000DE07C1F108F05BC08D7F65C0C3308DE589
:1047F000D80709F471C008F46DC0C236DD4509F070
:1048000071C080916E0384FB222720F991E09227EA
:1048100090FB84F965C080916E03816061C08091D6
:104820006E0316C080916F0316C080916F03826083
:1048300042C080916E03806153C080916E0380629C
:104840004FC080916E0380644BC080916E0388607E
:10485000846046C0826081602EC080916E038E7F2E
:104860003FC080916E038D7F3BC080916E03877F38
:1048700037C080916F0314C080916E038F7E30C06B
:1048800080916E038F7D2CC00E94010880916E0381
:104890008F7726C080916E03877F8B7F21C08D7FAD
:1048A0008E7F09C080916F03982F909591708E7FB5
:1048B000892B90FB81F980936F0314C00E9401083B
:1048C00080916E0387FB222720F991E0922790FBCD
:1048D00087F906C081E001C080E00E94E30E02C0BB
:1048E00080936E0380916E0390916F030E945D0E22
:1048F0000E94010880E001C081E0DF91CF9108951E
:10490000CF93DF9386319C4541F5EB010E945D0D0D
:10491000982F8A812091E4013091E501882379F074
:104920009A7A81E009F480E080935503911102C0E6
:1049300069E201C065E3C9010E9413260AC08091A3
:104940005503811102C069E201C065E3C9010E94FB
:1049500015260E94A20D80E001C081E0DF91CF9179
:1049600008950F931F93CF93DF93C42FD22FFC0191
:1049700082818823C9F0409358030E94B226909305
:1049800057038093560380E28C0F883008F057C09D
:10499000C77081E001C0880FCA95EAF7DF91CF9117
:1049A0001F910F910C945C0580915803481330C0FF
:1049B00080915603909157030E94CA26883C910526
:1049C00038F510E21D0FCD17B9F080E28C0F88305A
:1049D00040F4C77081E001C0880FCA95EAF70E94D1
:1049E0006305183028F581E09D2F977001C0880F6E
:1049F0009A95EAF70E945C05802F0E9453051830B3
:104A0000F0F4D77081E001C0880FDA95EAF70AC0A8
:104A100080E28C0F883098F4C77081E001C0880F65
:104A2000CA95EAF7DF91CF911F910F910C9463051E
:104A3000802FDF91CF911F910F910C945305DF913F
:104A4000CF911F910F9108950F939C01CB01243FAB
:104A50004CE5340731F188F4293DFCE53F07D9F0F6
:104A60002A3D4CE5340779F1283D3C45A9F506E29D
:104A700021EE41EE68ED7CE52BC0263FFCE53F07CB
:104A8000E1F0A8F0273F3C4539F507E225EE46EE78
:104A900067EF7CE51DC007E225EE45EE69ED7CE59C
:104AA00017C006E221EE40EE64EF7CE511C007E29C
:104AB00025EE44EE65EF7CE50BC006E221EE42EE0A
:104AC00066EF7CE505C008E221E045EE6AED7CE595
:104AD0000E94B12480E008C0FC018281882319F083
:104AE0001092580301C081E00F91089590938902BC
:104AF00080938802089590935E0380935D030895E8
:104B0000E0915D03F0915E03309721F00190F08118
:104B1000E02D099480E00895E0915D03F0915E033B
:104B2000309721F00280F381E02D09940895E091FF
:104B30005D03F0915E03309739F022E0DC012C93A5
:104B40000480F581E02D0994089520915B03309154
:104B50005C032817390771F090935C0380935B0323
:104B6000E0915D03F0915E03309721F00680F781BC
:104B7000E02D099408952091590330915A03281784
:104B8000390771F090935A0380935903E0915D03C4
:104B9000F0915E03309721F00084F185E02D0994B7
:104BA0000895FC01329697E080E0915029F0219120
:104BB0002223D9F38F5FF9CF0895662349F0FC01D2
:104BC000329608962191621729F0E817F907D1F774
:104BD00080E0089581E008959C01FC0132969FEFEA
:104BE00080E04191461789F09F3F19F4411101C0BF
:104BF000982F8F5F8630A9F79F3F39F0F901E90FB1
:104C0000F11D97FDFA956283089508959C012A5F2E
:104C10003F4FFC014281461301C012820196821768
:104C20009307B9F708950C94EC250C940626029688
:104C300026E0FC0111922A95E9F7089508950C9455
:104C40001E2683E080935F030C941F26811102C00F
:104C500081E001C082E080935F030C941F260C94D6
:104C6000262681E080935F030C941F260C94312646
:104C7000089580914004843031F10E944B031092DA
:104C8000600320E488E190E00FB6F894A895809343
:104C900060000FBE2093600083B7817F846083BF74
:104CA00083B7816083BF7894889583B78E7F83BFF5
:104CB0000FB6F894A8958091600088618093600099
:104CC000109260000FBE089508950C946426CF934F
:104CD0000E9465260E94FD120E946426C0E08C2F6F
:104CE0000E942712892B29F4CF5FC430C1F780E0DE
:104CF00001C081E0CF9108950E9401080C94C00387
:104D00001F920F920FB60F9211248F939F93AF9320
:104D1000BF9380916003811113C0809138049091FA
:104D20003904A0913A04B0913B044196A11DB11DF4
:104D30008093380490933904A0933A04B0933B04D1
:104D4000BF91AF919F918F910F900FBE0F901F90C9
:104D5000189582E084BD93E095BD9AEF97BD80934E
:104D60006E0008952FB7F89480913804909139041B
:104D7000A0913A04B0913B042FBF08952FB7F89447
:104D8000609138047091390480913A0490913B0409
:104D90002FBF08959C014FB7F894809138049091EB
:104DA0003904A0913A04B0913B044FBF821B930B8E
:104DB0000895CF92DF92EF92FF922FB7F894C090B0
:104DC0003804D0903904E0903A04F0903B042FBFAF
:104DD000A7019601261B370B480B590BCA01B901D5
:104DE000FF90EF90DF90CF90089578941F920F92EC
:104DF0000FB60F9211248F939F93AF93BF9380911F
:104E0000380490913904A0913A04B0913B04019682
:104E1000A11DB11D8093380490933904A0933A04E6
:104E2000B0933B04BF91AF919F918F910F900FBEB4
:104E30000F901F90189581E08093E00080E28093AE
:104E4000D8001092C9008FE19EE40197F1F700C0ED
:104E5000000087E090EBDC018093490490934A04C2
:104E6000A0934B04B0934C049CE088E10FB6F894F7
:104E7000A895809360000FBE90936000FFCF809153
:104E80006C030895089522E02093E9002FEF3091FC
:104E9000E800215035FD06C035ED3A95F1F70000E8
:104EA0002111F5CF2091E80025FF0BC040E050E034
:104EB00066E070E00E946D298091E8008E77809313
:104EC000E8000895CF93DF9321E02093E9002FEFCE
:104ED0003091E800215035FD06C035ED3A95F1F7E7
:104EE00000002111F5CF2091E80025FF14C0EC014E
:104EF00040E050E068E070E00E946D298091E80099
:104F00008E778093E80088E0FE01A4E6B3E001908C
:104F10000D928A95E1F7DF91CF9108958093610317
:104F2000709363036093620380914004843001F5C1
:104F300082E08093E9008FEF9091E800815095FD29
:104F400006C095ED9A95F1F700008111F5CF80919B
:104F5000E80085FF0DC040E050E063E070E081E6CE
:104F600093E00E946D298091E8008E778093E8009D
:104F70000895BC0184E00C948E27BC0183E00C945E
:104F80008E2780913F04811109C00E94FE2A0E9451
:104F90005B2B8091E20084608093E2000895109280
:104FA0003F0408950C94362660913C0481E0611121
:104FB00001C080E00C9421269091400481E094305F
:104FC00009F080E060913C040C94262642E061ECFC
:104FD00081E00E94772A42E261EC82E00E94772A17
:104FE0009091400481E0943009F080E060913C04AD
:104FF0000C942F2680914204833009F461C030F470
:10500000813071F0823009F49AC008958A3009F431
:1050100086C08B3009F46CC0893009F0A8C020C06C
:1050200080914104813A09F0A2C08091E800877F15
:105030008093E8008091450490914604892B21F4E7
:1050400068E084E693E003C060E080E090E070E018
:105050000E94B8298091E8008B778093E80008953A
:1050600080914104813209F082C080914504909181
:105070004604029708F07BC08091E800877F809308
:10508000E8008091E80082FD05C080914004811114
:10509000F8CF6DC02091F3008091F20090E0922B48
:1050A000029731F48091F100813011F0863021F4C3
:1050B0008091F10080936C038091E8008B7753C05E
:1050C00080914104813A09F052C080914504909149
:1050D0004604892B09F04BC08091E800877F8093BC
:1050E000E8008091E80080FFFCCF8091020236C08A
:1050F000809141048132D9F5809145049091460414
:10510000892BA9F58091E800877F8093E8000E94B1
:10511000AC2A80914304809302020C940108809190
:105120004104813221F58091E800877F8093E80077
:105130000E94AC2A8091440480936D03089580916D
:105140004104813AA1F48091E800877F8093E800D0
:105150008091E80080FFFCCF80916D038093F10087
:105160008091E8008E778093E8000C94AC2A089533
:1051700084B7877F84BF0FB6F894A89580916000AC
:10518000886180936000109260000FBE90E080E81C
:105190000FB6F89480936100909361000FBE0C9459
:1051A00031260E94FE2A0E945B2BE2EEF0E0808115
:1051B0008460808378940C94F02D86EF91E00C94B9
:1051C0007B25809140048530A9F48091400485308E
:1051D00079F40E94392680913E048823B1F30E941D
:1051E0006726882391F30E9457290E940108EDCF7A
:1051F0000C947C26089508950C94FE28292F3327BB
:1052000023303105C9F060F42130310581F02230BE
:10521000310509F044C08BE390E024E434E043C05E
:1052200021323105E1F02232310549F138C082E105
:1052300090E02FE734E037C099278130910549F09D
:1052400028F0029761F5E0E1F4E005C0E0E4F4E065
:1052500002C0E6E2F4E0849190E09F0124C0611571
:10526000710541F061307105D1F489E090E02FE6DD
:1052700034E019C089E090E026E534E014C06115FF
:10528000710541F06130710551F48BE790E021E93F
:1052900034E009C080E490E02CE035E004C080E018
:1052A00090E020E030E0FA0131832083089580E12E
:1052B00089BD82E189BD09B400FEFDCF8091D8008F
:1052C0008F7D8093D8008091E00082608093E00021
:1052D0008091E00081FDFCCF0895CF92DF92EF92A4
:1052E000FF920F931F93CF93DF93EC018B017A0111
:1052F0000E94CB2A811133C0E114F10439F0F70187
:1053000080819181081B190BC80FD91FC12CD12C8A
:105310000115110519F18091E80085FD16C08091F5
:10532000E8008E778093E800E114F10449F0F7017A
:1053300080819181C80ED91ED182C08285E00FC0C4
:105340000E94CB2A882321F30AC089918093F1001F
:1053500001501109FFEFCF1ADF0ADACF80E0DF91A9
:10536000CF911F910F91FF90EF90DF90CF90089514
:1053700020914704309148042617370748F06115FB
:10538000710539F42091E8002E772093E80001C0E0
:10539000B901FC0120E06115710579F180914004AB
:1053A0008823F1F18530F1F18091E80083FD3CC064
:1053B0008091E80082FD2EC08091E80080FFEBCF55
:1053C0002091F3008091F20090E0922B611571051D
:1053D00051F08830910538F421912093F10061500B
:1053E00071090196F3CF21E0089709F020E0809140
:1053F000E8008E778093E800CECF2111CFCF0AC08E
:1054000080914004882361F0853061F08091E8004C
:1054100083FD0AC08091E80082FFF2CF80E008950A
:1054200082E0089583E0089581E008952091470483
:10543000309148042617370748F06115710539F493
:105440002091E8002E772093E80001C0B901FC010B
:1054500020E06115710591F180914004882309F4E1
:1054600040C0853009F43FC08091E80083FD3DC015
:105470008091E80082FD2FC08091E80080FFE9CF95
:105480002091F3008091F20090E0922B611571055C
:1054900059F08830910540F424912093F100319621
:1054A000615071090196F2CF21E0089709F020E0E0
:1054B0008091E8008E778093E800CBCF2111CCCF8C
:1054C0000AC080914004882361F0853061F08091AA
:1054D000E80083FD0AC08091E80082FFF2CF80E0FF
:1054E000089582E0089583E0089581E00895982F5B
:1054F000973068F59093E900981739F07091EC00B7
:105500002091ED005091F00003C0242F762F50E041
:1055100021FD02C09F5FECCF3091EB003E7F3093C6
:10552000EB003091ED003D7F3093ED003091EB00CA
:1055300031603093EB007093EC002093ED005093BA
:10554000F0002091EE0027FDE5CF80E008958F70F8
:105550008093E90081E008958091410487FF11C0A4
:105560008091E80082FD05C0809140048111F8CF50
:1055700011C08091E8008B770BC080914004882394
:1055800049F08091E80080FFF8CF8091E8008E77A5
:105590008093E80008952091E4003091E50095E6BD
:1055A0004091EC00842F817040FF23C08091E8007F
:1055B00080FD1DC080914004882399F0853099F0CA
:1055C0008091EB0085FD11C04091E4005091E50011
:1055D0002417350729F3915011F09A01E1CF84E0A7
:1055E000089582E0089583E0089581E0089580E0C1
:1055F00008954091E80042FFDDCF08950E946C2B92
:105600000E94742BE0EEF0E0808181608083E8ED01
:10561000F0E080818F77808319BCA7EDB0E08C919A
:105620008E7F8C9380818F7E808310923F040895BB
:105630000F931F93CF93DF930E946C2B0E94742BC8
:10564000C8EDD0E088818F778883888180688883DF
:1056500088818F7D888319BC1092400410923C048D
:1056600010923E0410923D0400EE10E0F80180819B
:105670008B7F808388818160888342E060E080E066
:105680000E94772AE1EEF0E080818E7F8083E2EE57
:10569000F0E0808181608083808188608083F80170
:1056A00080818E7F8083888180618883DF91CF9124
:1056B0001F910F910895E8EDF0E080818F7E808347
:1056C000E7EDF0E080818160808384E082BF81E04B
:1056D00080933F040C94182BE8EDF0E080818E7FDE
:1056E00080831092E20008951092DA001092E10097
:1056F00008951F920F920FB60F9211242F933F938C
:105700004F935F936F937F938F939F93AF93BF93C9
:10571000EF93FF938091E10082FF0BC08091E20044
:1057200082FF07C08091E1008B7F8093E1000E949F
:10573000EF2D8091DA0080FF1FC08091D80080FF9C
:105740001BC08091DA008E7F8093DA008091D900AF
:1057500080FF0DC080E189BD82E189BD09B400FEF2
:10576000FDCF81E0809340040E94C12705C019BC91
:10577000109240040E94CF278091E10080FF19C061
:105780008091E20080FF15C08091E2008E7F8093BF
:10579000E2008091E20080618093E2008091D80075
:1057A00080628093D80019BC85E0809340040E94F9
:1057B000D4278091E10084FF30C08091E20084FF13
:1057C0002CC080E189BD82E189BD09B400FEFDCF16
:1057D0008091D8008F7D8093D8008091E1008F7EEA
:1057E0008093E1008091E2008F7E8093E2008091BF
:1057F000E20081608093E20080913C04882311F0F4
:1058000084E007C08091E30087FD02C081E001C011
:1058100083E0809340040E94DC278091E10083FFB5
:1058200029C08091E20083FF25C08091E100877F3D
:105830008093E10082E08093400410923C048091C8
:10584000E1008E7F8093E1008091E2008E7F809363
:10585000E2008091E20080618093E20042E060E03B
:1058600080E00E94772A8091F00088608093F000A9
:105870000E94D227FF91EF91BF91AF919F918F919D
:105880007F916F915F914F913F912F910F900FBE3C
:105890000F901F9018951F920F920FB60F92112420
:1058A0002F933F934F935F936F937F938F939F9328
:1058B000AF93BF93CF93DF93EF93FF93C091E90032
:1058C000CF708091EC00D82FD17080FDD0E810927D
:1058D000E9008091F000877F8093F00078940E9427
:1058E0008F2C1092E9008091F00088608093F00086
:1058F000CD2BCF70C093E900FF91EF91DF91CF9155
:10590000BF91AF919F918F917F916F915F914F91D7
:105910003F912F910F900FBE0F901F9018951F93DE
:10592000CF93DF93CDB7DEB7AA970FB6F894DEBF5B
:105930000FBECDBFE1E4F4E08091F100819324E05B
:10594000E934F207C9F70E94FA278091E80083FF43
:105950002EC18091410490914204492F50E04A3079
:10596000510508F024C1FA01E257FF4F0C94552E5F
:10597000803821F0823809F01AC108C080913D04B6
:1059800090913E04992389F082600FC08091450474
:105990008F70873008F00BC18093E9008091EB0095
:1059A00085FB882780F91092E9009091E800977FA5
:1059B0009093E8008093F1001092F100D1C0282F5D
:1059C0002D7F09F0F4C0882319F0823061F0EFC018
:1059D00080914304813009F0EAC0933009F080E0FF
:1059E00080933E042EC08091430481112AC080918F
:1059F00045048F702FEF280F263008F0D8C0809311
:105A0000E9002091EB0020FF1CC0933021F480912D
:105A1000EB00806214C09091EB0090619093EB00DA
:105A200021E030E0A90102C0440F551F8A95E2F73A
:105A30004093EA001092EA008091EB008860809326
:105A4000EB001092E9008091E800877F8093E800E6
:105A50000E94AC2AACC08111AAC0109143041F77E8
:105A60008091E3008078812B8093E3008091E800AF
:105A7000877F8093E8000E94AC2A8091E80080FF35
:105A8000FCCF8091E30080688093E300111102C095
:105A900082E001C083E08093400489C08058823056
:105AA00008F085C080914304909144048C3D53E0FC
:105AB000950779F583E08A838AE289834FB7F89462
:105AC000DE01139620E03EE051E2E32FF0E0509338
:105AD0005700E49120FF03C0E295EF703F5FEF7045
